{"abi":[{"type":"constructor","inputs":[{"name":"_implementation","type":"address","internalType":"address"}],"stateMutability":"nonpayable"},{"type":"function","name":"createEscrow","inputs":[{"name":"jobId","type":"bytes32","internalType":"bytes32"},{"name":"buyer","type":"address","internalType":"address"},{"name":"seller","type":"address","internalType":"address"},{"name":"arbiter","type":"address","internalType":"address"},{"name":"feeRecipient","type":"address","internalType":"address"},{"name":"feeBps","type":"uint256","internalType":"uint256"},{"name":"paymentToken","type":"address","internalType":"address"},{"name":"amountWei","type":"uint256","internalType":"uint256"},{"name":"deadline","type":"uint64","internalType":"uint64"},{"name":"buyerFeeBps","type":"uint256","internalType":"uint256"},{"name":"vendorFeeBps","type":"uint256","internalType":"uint256"},{"name":"disputeFeeBps","type":"uint256","internalType":"uint256"},{"name":"rewardRateBps","type":"uint256","internalType":"uint256"}],"outputs":[{"name":"escrow","type":"address","internalType":"address"}],"stateMutability":"nonpayable"},{"type":"function","name":"createEscrowDeterministic","inputs":[{"name":"jobId","type":"bytes32","internalType":"bytes32"},{"name":"buyer","type":"address","internalType":"address"},{"name":"seller","type":"address","internalType":"address"},{"name":"arbiter","type":"address","internalType":"address"},{"name":"feeRecipient","type":"address","internalType":"address"},{"name":"feeBps","type":"uint256","internalType":"uint256"},{"name":"paymentToken","type":"address","internalType":"address"},{"name":"amountWei","type":"uint256","internalType":"uint256"},{"name":"deadline","type":"uint64","internalType":"uint64"},{"name":"buyerFeeBps","type":"uint256","internalType":"uint256"},{"name":"vendorFeeBps","type":"uint256","internalType":"uint256"},{"name":"disputeFeeBps","type":"uint256","internalType":"uint256"},{"name":"rewardRateBps","type":"uint256","internalType":"uint256"},{"name":"salt","type":"bytes32","internalType":"bytes32"}],"outputs":[{"name":"escrow","type":"address","internalType":"address"}],"stateMutability":"nonpayable"},{"type":"function","name":"implementation","inputs":[],"outputs":[{"name":"","type":"address","internalType":"address"}],"stateMutability":"view"},{"type":"function","name":"owner","inputs":[],"outputs":[{"name":"","type":"address","internalType":"address"}],"stateMutability":"view"},{"type":"function","name":"predictEscrow","inputs":[{"name":"salt","type":"bytes32","internalType":"bytes32"}],"outputs":[{"name":"predicted","type":"address","internalType":"address"}],"stateMutability":"view"},{"type":"function","name":"transferOwnership","inputs":[{"name":"newOwner","type":"address","internalType":"address"}],"outputs":[],"stateMutability":"nonpayable"},{"type":"event","name":"EscrowCreated","inputs":[{"name":"jobId","type":"bytes32","indexed":true,"internalType":"bytes32"},{"name":"escrow","type":"address","indexed":true,"internalType":"address"},{"name":"buyer","type":"address","indexed":true,"internalType":"address"},{"name":"seller","type":"address","indexed":false,"internalType":"address"},{"name":"arbiter","type":"address","indexed":false,"internalType":"address"},{"name":"feeRecipient","type":"address","indexed":false,"internalType":"address"},{"name":"feeBps","type":"uint256","indexed":false,"internalType":"uint256"},{"name":"paymentToken","type":"address","indexed":false,"internalType":"address"},{"name":"amountWei","type":"uint256","indexed":false,"internalType":"uint256"},{"name":"deterministic","type":"bool","indexed":false,"internalType":"bool"},{"name":"deadline","type":"uint64","indexed":false,"internalType":"uint64"},{"name":"buyerFeeBps","type":"uint256","indexed":false,"internalType":"uint256"},{"name":"vendorFeeBps","type":"uint256","indexed":false,"internalType":"uint256"},{"name":"disputeFeeBps","type":"uint256","indexed":false,"internalType":"uint256"},{"name":"rewardRateBps","type":"uint256","indexed":false,"internalType":"uint256"}],"anonymous":false},{"type":"event","name":"OwnershipTransferred","inputs":[{"name":"previousOwner","type":"address","indexed":true,"internalType":"address"},{"name":"newOwner","type":"address","indexed":true,"internalType":"address"}],"anonymous":false},{"type":"error","name":"FailedDeployment","inputs":[]},{"type":"error","name":"InsufficientBalance","inputs":[{"name":"balance","type":"uint256","internalType":"uint256"},{"name":"needed","type":"uint256","internalType":"uint256"}]},{"type":"error","name":"NotOwner","inputs":[]}],"bytecode":{"object":"0x60a0346100dc57601f61085438819003918201601f19168301916001600160401b038311848410176100e1578084926020946040528339810103126100dc57516001600160a01b0381168082036100dc571561009757608052600080546001600160a01b0319163317905560405161075c90816100f8823960805181818161015a015281816101e2015281816103b201526104710152f35b60405162461bcd60e51b815260206004820152601360248201527f7a65726f20696d706c656d656e746174696f6e000000000000000000000000006044820152606490fd5b600080fd5b634e487b7160e01b600052604160045260246000fdfe6080604052600436101561001257600080fd5b60003560e01c806320a7e36314610418578063290d3ada1461037e578063346a7aa7146101895780635c60da1b146101445780638da5cb5b1461011b5763f2fde38b1461005e57600080fd5b34610116576020366003190112610116576004356001600160a01b038181169182900361011657600054908116908133036101045782156100d0576001600160a01b031916821760009081557f8be0079c531659141344cd1fd0a4f28419497f9722a3daafe3b4186f6b6457e09080a3005b60405162461bcd60e51b815260206004820152600c60248201526b7a65726f206164647265737360a01b6044820152606490fd5b6040516330cd747160e01b8152600490fd5b600080fd5b34610116576000366003190112610116576000546040516001600160a01b039091168152602090f35b34610116576000366003190112610116576040517f00000000000000000000000000000000000000000000000000000000000000006001600160a01b03168152602090f35b34610116576101a0366003190112610116576101a3610604565b6101ab61061a565b906101b4610630565b916101bd610646565b916101c661065c565b906101cf610672565b936e5af43d82803e903d91602b57fd5bf37f0000000000000000000000000000000000000000000000000000000000000000763d602d80600a3d3981f3363d3d373d3d3d363d7300000062ffffff8260881c161760005260781b1760205260018060a01b03603760096000f01694851561036c57853b1561011657604051936323c2fd6f60e11b85526000858061028961018435878d8c898c8a8861016435966101443596610124359660e43595600460a43595016106b4565b0381838b5af192831561036057602098889667ffffffffffffffff95610351575b50604080516001600160a01b03998a1681529189168b8301529188169181019190915260a4356060820152908616608082015260e43560a0820152600060c0820152911660e082015261012435610100820152610144356101208201526101643561014082015261018435610160820152921691600435907f3526cfc798ab7e9e6471c8b7b0e0c90ecf1f141436bd7def1ea46ffb2d9213fa9061018090a4604051908152f35b61035a9061068a565b8a6102aa565b6040513d6000823e3d90fd5b60405163b06ebf3d60e01b8152600490fd5b346101165760203660031901126101165760206040513060388201526f5af43d82803e903d91602b57fd5bf3ff60248201527f00000000000000000000000000000000000000000000000000000000000000006014820152733d602d80600a3d3981f3363d3d373d3d3d363d73815260043560588201526037600c82012060788201526055604360018060a01b0392012016604051908152f35b34610116576101c036600319011261011657610432610604565b61043a61061a565b90610443610630565b9161044c610646565b9161045561065c565b9061045e610672565b936e5af43d82803e903d91602b57fd5bf37f0000000000000000000000000000000000000000000000000000000000000000763d602d80600a3d3981f3363d3d373d3d3d363d7300000062ffffff8260881c161760005260781b1760205260018060a01b036101a435603760096000f5169485156105f357853b1561011657604051936323c2fd6f60e11b85526000858061051c61018435878d8c898c8a8861016435966101443596610124359660e43595600460a43595016106b4565b0381838b5af192831561036057602098889667ffffffffffffffff956105e4575b50604080516001600160a01b03998a1681529189168b8301529188169181019190915260a4356060820152908616608082015260e43560a0820152600160c0820152911660e082015261012435610100820152610144356101208201526101643561014082015261018435610160820152921691600435907f3526cfc798ab7e9e6471c8b7b0e0c90ecf1f141436bd7def1ea46ffb2d9213fa9061018090a4604051908152f35b6105ed9061068a565b8a61053d565b63b06ebf3d60e01b60805260046080fd5b602435906001600160a01b038216820361011657565b604435906001600160a01b038216820361011657565b606435906001600160a01b038216820361011657565b608435906001600160a01b038216820361011657565b60c435906001600160a01b038216820361011657565b610104359067ffffffffffffffff8216820361011657565b67ffffffffffffffff811161069e57604052565b634e487b7160e01b600052604160045260246000fd5b999795929c9b9a9896949190938a9461018086019e600160a01b60019003968780958180951683521690602001521660408c01521660608a015260808901521660a087015260c086015267ffffffffffffffff1660e0850152610100840152610120830152610140820152610160015256fea26469706673582212205696e804a583ba9982403ae67378555ee48e54b8dc2f7e0ebf4995764717dc0264736f6c63430008180033","linkReferences":{}},"methodIdentifiers":{"createEscrow(bytes32,address,address,address,address,uint256,address,uint256,uint64,uint256,uint256,uint256,uint256)":"346a7aa7","createEscrowDeterministic(bytes32,address,address,address,address,uint256,address,uint256,uint64,uint256,uint256,uint256,uint256,bytes32)":"20a7e363","implementation()":"5c60da1b","owner()":"8da5cb5b","predictEscrow(bytes32)":"290d3ada","transferOwnership(address)":"f2fde38b"},"id":39}