{"abi":[{"type":"constructor","inputs":[],"stateMutability":"nonpayable"},{"type":"function","name":"approve","inputs":[{"name":"_cid","type":"string","internalType":"string"}],"outputs":[],"stateMutability":"nonpayable"},{"type":"function","name":"cancel","inputs":[],"outputs":[],"stateMutability":"nonpayable"},{"type":"function","name":"deliver","inputs":[{"name":"_cid","type":"string","internalType":"string"},{"name":"_contentHash","type":"bytes32","internalType":"bytes32"}],"outputs":[],"stateMutability":"nonpayable"},{"type":"function","name":"escrowInfo","inputs":[],"outputs":[{"name":"buyer","type":"address","internalType":"address"},{"name":"vendor","type":"address","internalType":"address"},{"name":"arbiter","type":"address","internalType":"address"},{"name":"feeRecipient","type":"address","internalType":"address"},{"name":"rewardToken","type":"address","internalType":"address"},{"name":"rewardRatePer1e18","type":"uint256","internalType":"uint256"},{"name":"amount","type":"uint256","internalType":"uint256"},{"name":"buyerFeeReserve","type":"uint256","internalType":"uint256"},{"name":"disputeFeeAmount","type":"uint256","internalType":"uint256"},{"name":"buyerFeeBps","type":"uint256","internalType":"uint256"},{"name":"vendorFeeBps","type":"uint256","internalType":"uint256"},{"name":"disputeFeeBps","type":"uint256","internalType":"uint256"},{"name":"rewardRateBps","type":"uint256","internalType":"uint256"},{"name":"createdAt","type":"uint64","internalType":"uint64"},{"name":"deadline","type":"uint64","internalType":"uint64"},{"name":"disputeFeeDeadline","type":"uint64","internalType":"uint64"},{"name":"disputeInitiator","type":"address","internalType":"address"},{"name":"buyerPaidDisputeFee","type":"bool","internalType":"bool"},{"name":"vendorPaidDisputeFee","type":"bool","internalType":"bool"},{"name":"cid","type":"string","internalType":"string"},{"name":"contentHash","type":"bytes32","internalType":"bytes32"},{"name":"proposedCID","type":"string","internalType":"string"},{"name":"proposedContentHash","type":"bytes32","internalType":"bytes32"},{"name":"buyerApproved","type":"bool","internalType":"bool"},{"name":"vendorApproved","type":"bool","internalType":"bool"},{"name":"state","type":"uint8","internalType":"enum Escrow.State"}],"stateMutability":"view"},{"type":"function","name":"fund","inputs":[],"outputs":[],"stateMutability":"payable"},{"type":"function","name":"getAllInfo","inputs":[],"outputs":[{"name":"","type":"tuple","internalType":"struct Escrow.EscrowInfo","components":[{"name":"buyer","type":"address","internalType":"address"},{"name":"vendor","type":"address","internalType":"address"},{"name":"arbiter","type":"address","internalType":"address"},{"name":"feeRecipient","type":"address","internalType":"address"},{"name":"rewardToken","type":"address","internalType":"address"},{"name":"rewardRatePer1e18","type":"uint256","internalType":"uint256"},{"name":"amount","type":"uint256","internalType":"uint256"},{"name":"buyerFeeReserve","type":"uint256","internalType":"uint256"},{"name":"disputeFeeAmount","type":"uint256","internalType":"uint256"},{"name":"buyerFeeBps","type":"uint256","internalType":"uint256"},{"name":"vendorFeeBps","type":"uint256","internalType":"uint256"},{"name":"disputeFeeBps","type":"uint256","internalType":"uint256"},{"name":"rewardRateBps","type":"uint256","internalType":"uint256"},{"name":"createdAt","type":"uint64","internalType":"uint64"},{"name":"deadline","type":"uint64","internalType":"uint64"},{"name":"disputeFeeDeadline","type":"uint64","internalType":"uint64"},{"name":"disputeInitiator","type":"address","internalType":"address"},{"name":"buyerPaidDisputeFee","type":"bool","internalType":"bool"},{"name":"vendorPaidDisputeFee","type":"bool","internalType":"bool"},{"name":"cid","type":"string","internalType":"string"},{"name":"contentHash","type":"bytes32","internalType":"bytes32"},{"name":"proposedCID","type":"string","internalType":"string"},{"name":"proposedContentHash","type":"bytes32","internalType":"bytes32"},{"name":"buyerApproved","type":"bool","internalType":"bool"},{"name":"vendorApproved","type":"bool","internalType":"bool"},{"name":"state","type":"uint8","internalType":"enum Escrow.State"}]}],"stateMutability":"view"},{"type":"function","name":"getState","inputs":[],"outputs":[{"name":"","type":"uint256","internalType":"uint256"}],"stateMutability":"view"},{"type":"function","name":"initialize","inputs":[{"name":"_buyer","type":"address","internalType":"address"},{"name":"_seller","type":"address","internalType":"address"},{"name":"_arbiter","type":"address","internalType":"address"},{"name":"_feeRecipient","type":"address","internalType":"address"},{"name":"_feeBps","type":"uint256","internalType":"uint256"},{"name":"_paymentToken","type":"address","internalType":"address"},{"name":"_amountWei","type":"uint256","internalType":"uint256"},{"name":"_deadline","type":"uint64","internalType":"uint64"},{"name":"_buyerFeeBps","type":"uint256","internalType":"uint256"},{"name":"_vendorFeeBps","type":"uint256","internalType":"uint256"},{"name":"_disputeFeeBps","type":"uint256","internalType":"uint256"},{"name":"_rewardRateBps","type":"uint256","internalType":"uint256"}],"outputs":[],"stateMutability":"nonpayable"},{"type":"function","name":"initiateDispute","inputs":[],"outputs":[],"stateMutability":"payable"},{"type":"function","name":"isReleasable","inputs":[],"outputs":[{"name":"","type":"bool","internalType":"bool"}],"stateMutability":"view"},{"type":"function","name":"owner","inputs":[],"outputs":[{"name":"","type":"address","internalType":"address"}],"stateMutability":"view"},{"type":"function","name":"participants","inputs":[],"outputs":[{"name":"","type":"address","internalType":"address"},{"name":"","type":"address","internalType":"address"},{"name":"","type":"address","internalType":"address"},{"name":"","type":"address","internalType":"address"}],"stateMutability":"view"},{"type":"function","name":"payDisputeFee","inputs":[],"outputs":[],"stateMutability":"payable"},{"type":"function","name":"refundAfterDeadline","inputs":[],"outputs":[],"stateMutability":"nonpayable"},{"type":"function","name":"renounceOwnership","inputs":[],"outputs":[],"stateMutability":"nonpayable"},{"type":"function","name":"resolveDisputeByDefault","inputs":[],"outputs":[],"stateMutability":"nonpayable"},{"type":"function","name":"resolveToBuyer","inputs":[],"outputs":[],"stateMutability":"nonpayable"},{"type":"function","name":"resolveToVendor","inputs":[],"outputs":[],"stateMutability":"nonpayable"},{"type":"function","name":"setRewardRatePer1e18","inputs":[{"name":"_rate","type":"uint256","internalType":"uint256"}],"outputs":[],"stateMutability":"nonpayable"},{"type":"function","name":"setRewardToken","inputs":[{"name":"_rewardToken","type":"address","internalType":"address"}],"outputs":[],"stateMutability":"nonpayable"},{"type":"function","name":"transferOwnership","inputs":[{"name":"newOwner","type":"address","internalType":"address"}],"outputs":[],"stateMutability":"nonpayable"},{"type":"function","name":"withdraw","inputs":[],"outputs":[],"stateMutability":"nonpayable"},{"type":"event","name":"Approved","inputs":[{"name":"buyer","type":"address","indexed":true,"internalType":"address"},{"name":"cid","type":"string","indexed":false,"internalType":"string"}],"anonymous":false},{"type":"event","name":"Cancelled","inputs":[{"name":"buyer","type":"address","indexed":true,"internalType":"address"},{"name":"amount","type":"uint256","indexed":false,"internalType":"uint256"}],"anonymous":false},{"type":"event","name":"Delivered","inputs":[{"name":"vendor","type":"address","indexed":true,"internalType":"address"},{"name":"cid","type":"string","indexed":false,"internalType":"string"},{"name":"contentHash","type":"bytes32","indexed":false,"internalType":"bytes32"}],"anonymous":false},{"type":"event","name":"DisputeFeePaid","inputs":[{"name":"payer","type":"address","indexed":true,"internalType":"address"},{"name":"amount","type":"uint256","indexed":false,"internalType":"uint256"}],"anonymous":false},{"type":"event","name":"DisputeInitiated","inputs":[{"name":"initiator","type":"address","indexed":true,"internalType":"address"},{"name":"feeAmount","type":"uint256","indexed":false,"internalType":"uint256"},{"name":"deadline","type":"uint64","indexed":false,"internalType":"uint64"}],"anonymous":false},{"type":"event","name":"DisputeResolvedByDefault","inputs":[{"name":"winner","type":"address","indexed":true,"internalType":"address"},{"name":"reason","type":"string","indexed":false,"internalType":"string"}],"anonymous":false},{"type":"event","name":"FeePaid","inputs":[{"name":"to","type":"address","indexed":true,"internalType":"address"},{"name":"amount","type":"uint256","indexed":false,"internalType":"uint256"},{"name":"reason","type":"string","indexed":false,"internalType":"string"}],"anonymous":false},{"type":"event","name":"Funded","inputs":[{"name":"buyer","type":"address","indexed":true,"internalType":"address"},{"name":"amount","type":"uint256","indexed":false,"internalType":"uint256"},{"name":"buyerFee","type":"uint256","indexed":false,"internalType":"uint256"}],"anonymous":false},{"type":"event","name":"Initialized","inputs":[{"name":"buyer","type":"address","indexed":true,"internalType":"address"},{"name":"seller","type":"address","indexed":true,"internalType":"address"},{"name":"arbiter","type":"address","indexed":true,"internalType":"address"},{"name":"feeRecipient","type":"address","indexed":false,"internalType":"address"},{"name":"feeBps","type":"uint256","indexed":false,"internalType":"uint256"},{"name":"paymentToken","type":"address","indexed":false,"internalType":"address"},{"name":"amountWei","type":"uint256","indexed":false,"internalType":"uint256"},{"name":"deadline","type":"uint64","indexed":false,"internalType":"uint64"}],"anonymous":false},{"type":"event","name":"OwnershipTransferred","inputs":[{"name":"previousOwner","type":"address","indexed":true,"internalType":"address"},{"name":"newOwner","type":"address","indexed":true,"internalType":"address"}],"anonymous":false},{"type":"event","name":"Refunded","inputs":[{"name":"to","type":"address","indexed":true,"internalType":"address"},{"name":"amount","type":"uint256","indexed":false,"internalType":"uint256"}],"anonymous":false},{"type":"event","name":"ResolvedToBuyer","inputs":[{"name":"arbiter","type":"address","indexed":true,"internalType":"address"},{"name":"amount","type":"uint256","indexed":false,"internalType":"uint256"}],"anonymous":false},{"type":"event","name":"ResolvedToVendor","inputs":[{"name":"arbiter","type":"address","indexed":true,"internalType":"address"},{"name":"amount","type":"uint256","indexed":false,"internalType":"uint256"}],"anonymous":false},{"type":"event","name":"ResultFinalized","inputs":[{"name":"cid","type":"string","indexed":false,"internalType":"string"},{"name":"contentHash","type":"bytes32","indexed":false,"internalType":"bytes32"}],"anonymous":false},{"type":"event","name":"RewardPaid","inputs":[{"name":"to","type":"address","indexed":true,"internalType":"address"},{"name":"amount","type":"uint256","indexed":false,"internalType":"uint256"},{"name":"reason","type":"string","indexed":false,"internalType":"string"}],"anonymous":false},{"type":"event","name":"RewardSkipped","inputs":[{"name":"to","type":"address","indexed":true,"internalType":"address"},{"name":"reason","type":"string","indexed":false,"internalType":"string"}],"anonymous":false},{"type":"event","name":"Withdrawn","inputs":[{"name":"to","type":"address","indexed":true,"internalType":"address"},{"name":"amount","type":"uint256","indexed":false,"internalType":"uint256"}],"anonymous":false},{"type":"error","name":"AlreadyInitialized","inputs":[]},{"type":"error","name":"BadState","inputs":[]},{"type":"error","name":"BadValue","inputs":[]},{"type":"error","name":"BothPartiesNotPaid","inputs":[]},{"type":"error","name":"CIDMismatch","inputs":[]},{"type":"error","name":"CancelWindowPassed","inputs":[]},{"type":"error","name":"DeadlineNotReached","inputs":[]},{"type":"error","name":"DisputeFeeAlreadyPaid","inputs":[]},{"type":"error","name":"DisputeFeeDeadlineNotPassed","inputs":[]},{"type":"error","name":"DisputeFeeDeadlinePassed","inputs":[]},{"type":"error","name":"InsufficientDisputeFee","inputs":[]},{"type":"error","name":"NoArbiter","inputs":[]},{"type":"error","name":"OnlyBuyer","inputs":[]},{"type":"error","name":"OnlyParticipant","inputs":[]},{"type":"error","name":"OnlyVendor","inputs":[]},{"type":"error","name":"OwnableInvalidOwner","inputs":[{"name":"owner","type":"address","internalType":"address"}]},{"type":"error","name":"OwnableUnauthorizedAccount","inputs":[{"name":"account","type":"address","internalType":"address"}]},{"type":"error","name":"ReentrancyGuardReentrantCall","inputs":[]}],"bytecode":{"object":"0x60808060405234610080576000805460016001600160a01b0319821681178355916001600160a01b03909116907f8be0079c531659141344cd1fd0a4f28419497f9722a3daafe3b4186f6b6457e09080a360017f9b779b17422d0df92223018b32b4d1fa46e071723d6817e2486d003becc55f00556127ee90816100868239f35b600080fdfe610160604052600436101561001357600080fd5b60003560e01c8063102df91d1461215f5780631865c57d146121315780631f7cb13b14612110578063394ff3eb14611ff25780633ccfd60b14611a8f5780634785fade1461169f5780634acc296f146114f65780636c4470fb146114ae578063715018a614611455578063879b8a91146113745780638aee8127146113315780638da5cb5b14611308578063ac759f16146110d5578063ad9bdebb14611091578063b18e15bd14610cb9578063b60d428814610bca578063b67b716314610a4c578063ea8a1af0146108de578063ed60e20b14610655578063f2fde38b14610601578063f3d25904146103df5763fe961ae21461010f57600080fd5b346103da5760403660031901126103da576001600160401b036004358181116103da57610140903690600401612335565b600254602435939291906001600160a01b0390811633036103c85760ff60145460101c16936007851015610255576001948581141590816103bc575b506103aa57821561037957821161036357610198601254612362565b601f81116102fb575b50816000601f82116001146102765760009161026b575b50600019600384901b1c191682851b176012555b8460135560145460ff61010061ff00198316178060145560101c16946007861015610255577fcf69bc745759d0d222ad7eb5e661ee1d5009a28037cf530b4964079200d92c9d9514610241575b5060025416936102366040519384936040855260408501916126b4565b9060208301520390a2005b62ffff001916620201001760145538610219565b634e487b7160e01b600052602160045260246000fd5b9050830135386101b8565b9050601f198316906012600052837fbb8a6a4669ba250d26cd7a459eca9d215f8307e33aebe50379bc5a3617ec34449260005b888282106102e2575050106102c8575b50508382811b016012556101cc565b840135600019600385901b60f8161c1916905538806102b9565b88850135865590940193602093840193879350016102a9565b60126000527fbb8a6a4669ba250d26cd7a459eca9d215f8307e33aebe50379bc5a3617ec3444601f840160051c81019160208510610359575b601f0160051c019085905b82811061034d5750506101a1565b6000815501859061033f565b9091508190610334565b634e487b7160e01b600052604160045260246000fd5b60405162461bcd60e51b8152602060048201526009602482015268195b5c1d1e4810d25160ba1b6044820152606490fd5b604051634291db1560e11b8152600490fd5b6002915014153861017c565b6040516312d5ee2760e31b8152600490fd5b600080fd5b346103da5760003660031901126103da576001546002546001600160a01b0390811661012052600354811661014052600454600554600654600754600854600954600a54600b54600c54600d54600e54600f546040519d909c919b929a939994989597959493821692821691168d806104578161239c565b03610461916124fa565b60115460805260405160a081905261047881612450565b0360a05190610486916124fa565b6013546101005260145460e05260405160c05260c051526101205160c051602001526101405160c0516040015260c0516060015260c0516080015260c05160a0015260c05160c0015260c05160e0015260c051610100015260c051610120015260c051610140015260c051610160015260c05161018001526001600160401b03811660c0516101a001528060401c6001600160401b031660c0516101c0015260801c6001600160401b031660c0516101e00152600160a01b60019003811660c05161020001528060a01c60ff16151560c051610220015260a81c60ff16151560c051610240015260c05161026001610340905260c05161034001610589916122e8565b60805160c051610280015260c051810360c0516102a0015260a051906105ae916122e8565b6101005160c0516102c0015260e05160ff16151560c0516102e0015260e05160081c60ff16151560c051610300015260c0516103200160e05160101c60ff16906105f791612328565b60c051900360c051f35b346103da5760203660031901126103da5761061a6122d2565b6106226126d5565b6001600160a01b0381161561063c5761063a90612731565b005b604051631e4fbdf760e01b815260006004820152602490fd5b346103da5760003660031901126103da5761066e6126d5565b610676612701565b6003546001600160a01b039081169081156108cc5760145460ff8160101c166007811015610255576003036103aa57600f5460ff8160a01c16159081156108bd575b506108ab577f7084f5476618d8e60b11ef0d7d3f06914655adb8793e28ff7f018d4c76d505d5916020916106ed601254612362565b610865575b6107a36107226107456000808080600754610710600954809261251b565b9c620500008260011c98898094612528565b9a846007558460085562ff00001916176014555af161073f612550565b50612580565b836003541690604051807f3e3d11fed2579ab23676d30f4893a503a2a74a2d3610026a21a83c39e2a85e2e94859382608091815260406020820152600f60408201526e6172626974726174696f6e5f66656560881b60608201520190565b0390a26107c460008080808688600454165af16107be612550565b506125c5565b6004546040805193845260208401819052601190840152706c6f7365725f646973707574655f66656560781b6060840152831691608090a261081a60008080808886600254165af1610814612550565b50612678565b6040518481527fd82efe788c6ad752e8623f0025737cf5b80ffc6d780315c9a5fb0b7732e65c0b833392a26002541692604051908152a2600160008051602061279983398151915255005b7f21c3fb4135c9fa99b642787bdf5e79b3e822f2f5ff6b4f832a29a4be29c700bf60135460405180916040825261089e60408301612450565b90878301520390a16106f2565b604051637be44c7d60e01b8152600490fd5b60ff915060a81c1615846106b8565b6040516304e2778b60e31b8152600490fd5b346103da5760003660031901126103da576001546001600160a01b039081163303610a3a5761090b612701565b6014549060ff8260101c166007811015610255576001036103aa57600e546001600160401b0390818082169160401c168181116109e6575b84600080516020612779833981519152602086620600006109696007546008549061251b565b946000600755600060085562ff000019161760145561099c60008080808886600154165af1610996612550565b50612611565b6001541692837f36ea5cd5608625e789af0282eecdb4eae1cb7c1cf6d0ec3f9a84f35be850260b83604051848152a2604051908152a2600160008051602061279983398151915255005b819003828111610a2457600583809216041601818111610a2457811690421611610a1257828080610943565b604051633326766b60e21b8152600490fd5b634e487b7160e01b600052601160045260246000fd5b6040516386efbb5560e01b8152600490fd5b346103da576020806003193601126103da576004356001600160401b0381116103da57610a7d903690600401612335565b6001546001600160a01b031692919033849003610a3a576014549360ff8560101c166007811015610255576002036103aa57610ab882612535565b610ac560405191826124fa565b8281528481019036848601116103da57838583376000868583010152519020604051610afb81610af481612450565b03826124fa565b85815191012003610bb8577fe3053523a3a35835db28369b20a103b8fe2f7d12c0a6b61b8c23dfe4d5baed6560ff93600185198816179384601455610b4b604051928392898452898401916126b4565b0390a260081c1680610bb0575b610b5e57005b620400017f21c3fb4135c9fa99b642787bdf5e79b3e822f2f5ff6b4f832a29a4be29c700bf9262ff00ff19161760145560135460405191829160408352610ba760408401612450565b918301520390a1005b506001610b58565b6040516387cf120760e01b8152600490fd5b60003660031901126103da576001546001600160a01b031633819003610a3a5760145460ff8160101c166007811015610255576103aa573415610ca757600a549061271090813402923484048303610a2457820191828111610a24578215610c9157620100006040937fcd909ec339185c4598a4096e174308fbdf136d117f230960f873a2f2e81f63af950492610c618434612528565b928460075583600855610c76600c548661264d565b0460095562ff000019161760145582519182526020820152a2005b634e487b7160e01b600052601260045260246000fd5b604051630bba69fb60e01b8152600490fd5b346103da5760003660031901126103da576000610320604051610cdb816124de565b8281528260208201528260408201528260608201528260808201528260a08201528260c08201528260e08201528261010082015282610120820152826101408201528261016082015282610180820152826101a0820152826101c0820152826101e082015282610200820152826102208201528261024082015260606102608201528261028082015260606102a0820152826102c0820152826102e0820152826103008201520152604051610d8f816124de565b6001546001600160a01b03908116825260025481166020830152600354811660408084019190915260045482166060840152600554821660808085019190915260065460a08581019190915260075460c086015260085460e0860152600954610100860152600a54610120860152600b54610140860152600c54610160860152600d54610180860152600e546001600160401b038181166101a088015281851c81166101c0880152921c9091166101e0850152600f5492831661020085015282901c60ff908116151561022085015260a89290921c909116151561024083015251610e7d81610af48161239c565b610260820152601154610280820152604051610e9c81610af481612450565b6102a08201526013546102c082015260145460ff811615156102e083015260ff8160081c161515610300830152600760ff8260101c1610156102555760ff9060101c1661032082015260405180916020825260018060a01b03815116602083015260018060a01b03602082015116604083015260018060a01b03604082015116606083015260018060a01b03606082015116608083015260018060a01b0360808201511660a083015260a081015160c083015260c081015160e083015260e08101516101008301526101008101516101208301526101208101516101408301526101408101516101608301526101608101516101808301526101808101516101a08301526001600160401b036101a0820151166101c08301526001600160401b036101c0820151166101e08301526001600160401b036101e08201511661020083015260018060a01b03610200820151166102208301526102208101511515610240830152610240810151151561026083015261108d61026082015161032061105b61103761034093846102808901526103608801906122e8565b6102808601516102a08801526102a0860151601f19888303016102c08901526122e8565b936102c08101516102e08701526102e08101511515610300870152610300810151151582870152015190840190612328565b0390f35b346103da5760003660031901126103da5760ff60145460101c16600781101561025557600414806110ca575b6020906040519015158152f35b5060075415156110bd565b346103da5760003660031901126103da576110ee612701565b60145460ff8160101c166007811015610255576003036103aa576001600160401b03600e5460801c1642106112f657600f5460ff8160a01c16806112e9575b6108ab5760018060a01b0391600754916009549060006007558480600154169116146000146112245750506020611176600080516020612779833981519152926008549061251b565b9260006008556206000062ff00001960145416176014556111a560008080808886600154165af1610996612550565b6001541692837faab9115643ea215a7033c875b90bea2944862403f31d64dd739f7c380f3ae0396040518061120581606090602081526016602082015275636f756e74657270617274795f6469646e745f70617960501b60408201520190565b0390a2604051908152a25b600160008051602061279983398151915255005b9262050000611257602093957f7084f5476618d8e60b11ef0d7d3f06914655adb8793e28ff7f018d4c76d505d59561251b565b9462ff000019161760145561127a60008080808886600254165af1610814612550565b6002541692837faab9115643ea215a7033c875b90bea2944862403f31d64dd739f7c380f3ae039604051806112da81606090602081526016602082015275636f756e74657270617274795f6469646e745f70617960501b60408201520190565b0390a2604051908152a2611210565b5060ff8160a81c1661112d565b604051630e62333360e01b8152600490fd5b346103da5760003660031901126103da576000546040516001600160a01b039091168152602090f35b346103da5760203660031901126103da5761134a6122d2565b6113526126d5565b600580546001600160a01b0319166001600160a01b0392909216919091179055005b346103da5760003660031901126103da576001546001600160a01b039081163303610a3a576113a1612701565b6014549060ff8260101c166007811015610255576001036103aa576001600160401b03600e5460401c16421061144357602060008051602061277983398151915291620600006113f66007546008549061251b565b946000600755600060085562ff000019161760145561142360008080808886600154165af1610996612550565b6001541692604051908152a2600160008051602061279983398151915255005b604051633376277360e11b8152600490fd5b346103da5760003660031901126103da5761146e6126d5565b600080546001600160a01b0319811682556001600160a01b03167f8be0079c531659141344cd1fd0a4f28419497f9722a3daafe3b4186f6b6457e08280a3005b346103da5760003660031901126103da57608060018060a01b038060015416908060025416908060035416906004541691604051938452602084015260408301526060820152f35b60003660031901126103da57600154336001600160a01b039182161490811580611691575b61167f5760ff60145460101c1660078110156102555760018114159081611673575b506103aa578060035416156108cc57600254163314600014611657576203f4804201804211610a24576001600160401b0316905b15611636576008546009541161162457600f805460ff60a01b1916600160a01b1790555b336bffffffffffffffffffffffff60a01b600f541617600f55600e546001600160401b0360801b8260801b16906001600160401b0360801b191617600e556203000062ff00001960145416176014556001600160401b03600954916040519283521660208201527f69aed8038ad9fbfc8218ef9a586e5ce663a88a05c8dcea0ac3560acacfc198c760403392a2005b60405163c4bdc54760e01b8152600490fd5b600954341061162457600f805460ff60a81b1916600160a81b179055611595565b6202a3004201804211610a24576001600160401b031690611571565b6002915014158361153d565b604051630eebd6cd60e21b8152600490fd5b50806002541633141561151b565b346103da576101803660031901126103da576116b96122d2565b602435906001600160a01b03821682036103da576044356001600160a01b03811690036103da576064356001600160a01b03811681036103da5760a4356001600160a01b03811681036103da576001600160401b0360e4351660e435036103da5760155460ff8116611a7e5760ff19166001176015556001600160a01b038316151580611a6c575b15611a3b576001600160a01b03821615611a0157426001600160401b0360e4351611156119cd5760843561177b610124356101043561251b565b03611999576103e8806101043511158061198c575b156119585780610144351161191c5761016435116118e0576001600160401b03906044356001600160a01b0316156118d7576117cd604435612731565b600180546001600160a01b03199081166001600160a01b03968716908117909255600280548216978716978817905560038054821660443588169081179091556004805490921695871695861790915561010435600a5561012435600b5561014435600c5561016435600d55600e80546fffffffffffffffffffffffffffffffff19164286161760e435604090811b6fffffffffffffffff00000000000000001691909117918290556014805462ff00001916905580519687526084356020880152939096168584015260c43560608601529490911c9091166080830152919291907f628fe14be05ce7103d3827f5399adf4031838c822d503e405570022ee181b3bb9060a090a4005b6117cd33612731565b60405162461bcd60e51b81526020600482015260146024820152730e4caeec2e4c840e4c2e8ca40e8dede40d0d2ced60631b6044820152606490fd5b60405162461bcd60e51b81526020600482015260146024820152730c8d2e6e0eae8ca40cccaca40e8dede40d0d2ced60631b6044820152606490fd5b60405162461bcd60e51b815260206004820152600c60248201526b0cccaca40e8dede40d0d2ced60a31b6044820152606490fd5b5080610124351115611790565b60405162461bcd60e51b815260206004820152600c60248201526b0cccaca40dad2e6dac2e8c6d60a31b6044820152606490fd5b60405162461bcd60e51b815260206004820152600c60248201526b62616420646561646c696e6560a01b6044820152606490fd5b60405162461bcd60e51b81526020600482015260126024820152711e995c9bc8199959481c9958da5c1a595b9d60721b6044820152606490fd5b60405162461bcd60e51b81526020600482015260096024820152683d32b9379030b2323960b91b6044820152606490fd5b506001600160a01b0384161515611741565b60405162dc149f60e41b8152600490fd5b346103da5760003660031901126103da57600280546001600160a01b0390811633036103c857611abd612701565b6014549060ff8260101c166007811015610255576004036103aa5760075492600854936127109362050000611b0a611b0387611afb600b548761264d565b04809961251b565b9784612528565b916000600755600060085562ff000019161760145560008080808988600454165af1611b34612550565b5015611fb85783600454166040519687527f3e3d11fed2579ab23676d30f4893a503a2a74a2d3610026a21a83c39e2a85e2e608060209860408a82015260156040820152746e6f726d616c5f636f6d706c6574696f6e5f66656560581b6060820152a2600080808084888854165af1611bab612550565b5015611f81577f7084f5476618d8e60b11ef0d7d3f06914655adb8793e28ff7f018d4c76d505d5868585541692604051908152a282600554169383600054169160065486151580611f78575b611c0f57600160008051602061279983398151915255005b670de0b6b3a764000092611c29611c2f93600d549061264d565b0461264d565b049384158015611c40575b80611210565b8560011b9086820485141715610a2457604051636eb1769f60e11b8152600481018490523060248201528781604481865afa908115611e6657600091611f4b575b5010611eef576001546040516323b872dd60e01b8082526001600160a01b0385811660048401529287169092166024820152604481018790529187836064816000855af1938415611e665787948994600091611ed2575b5015611e725786600154167f21a82678daa5235b7b5de669fdf9599453d3d885cee0826e92636d747419689c6080604051888152604088820152600c60408201526b189d5e595c97dc995dd85c9960a21b6060820152a25b85546040519384526001600160a01b0391821660048501528716166024830152604482019390935291829060649082906000905af1908115611e6657600091611e39575b5015611dd8579160406080927f21a82678daa5235b7b5de669fdf9599453d3d885cee0826e92636d747419689c945416948151928352820152600d60408201526c1d995b991bdc97dc995dd85c99609a1b6060820152a25b80808080808080611c3a565b9150915054167f3e2b10137abf66c99b4df38a02ffc048e5aa72e1ddf22de80642e697bf64197d60405180611e318160609060208152600f60208201526e1d1c985b9cd9995c97d9985a5b1959608a1b60408201520190565b0390a2611dcc565b611e599150853d8711611e5f575b611e5181836124fa565b810190612660565b85611d74565b503d611e47565b6040513d6000823e3d90fd5b86600154167f3e2b10137abf66c99b4df38a02ffc048e5aa72e1ddf22de80642e697bf64197d60405180611eca8160609060208152600f60208201526e1d1c985b9cd9995c97d9985a5b1959608a1b60408201520190565b0390a2611d30565b611ee99150853d8711611e5f57611e5181836124fa565b8a611cd8565b50505050507f3e2b10137abf66c99b4df38a02ffc048e5aa72e1ddf22de80642e697bf64197d606060009260166040519180835282015275696e73756666696369656e745f616c6c6f77616e636560501b6040820152a2611dcc565b90508781813d8311611f71575b611f6281836124fa565b810103126103da575188611c81565b503d611f58565b50801515611bf7565b60405162461bcd60e51b815260048101879052600f60248201526e1dda5d1a191c985dc819985a5b1959608a1b6044820152606490fd5b60405162461bcd60e51b8152602060048201526012602482015271199959481c185e5b595b9d0819985a5b195960721b6044820152606490fd5b60003660031901126103da576001546001600160a01b039081163314801580612102575b61167f5760ff60145460101c166007811015610255576003036103aa57600f5491821633146120b5576001600160401b03600e5460801c1642116120f057156120c75750600f5460ff8160a01c166120b557600854600954116116245760ff60a01b1916600160a01b17600f555b6009546040519081527fb5118a8a92771e3e991d5f58972e139b1573725c9eb05b5810b4eb399bc043a360203392a2005b6040516397e7de5760e01b8152600490fd5b60ff8160a81c166120b55760095434106116245760ff60a81b1916600160a81b17600f55612084565b60405163080532ff60e11b8152600490fd5b508160025416331415612016565b346103da5760203660031901126103da576121296126d5565b600435600655005b346103da5760003660031901126103da5760ff60145460101c16600781101561025557602090604051908152f35b346103da5760003660031901126103da576121786126d5565b612180612701565b6003546001600160a01b039081169081156108cc5760145460ff8160101c166007811015610255576003036103aa57600f5460ff8160a01c16159081156122c3575b506108ab576000805160206127798339815191529160209161220d61072261074560008080806007546121fb600954916008549061251b565b9c620600008260011c98898094612528565b0390a261222860008080808688600454165af16107be612550565b6004546040805193845260208401819052601190840152706c6f7365725f646973707574655f66656560781b6060840152831691608090a261227860008080808886600154165af1610996612550565b6040518481527f1a6b239413869eb48f20710812d9dd84bed42640718f72af5517d20dd7b611d7833392a26001541692604051908152a2600160008051602061279983398151915255005b60ff915060a81c1615846121c2565b600435906001600160a01b03821682036103da57565b919082519283825260005b848110612314575050826000602080949584010152601f8019910116010190565b6020818301810151848301820152016122f3565b9060078210156102555752565b9181601f840112156103da578235916001600160401b0383116103da57602083818601950101116103da57565b90600182811c92168015612392575b602083101461237c57565b634e487b7160e01b600052602260045260246000fd5b91607f1691612371565b601054600092916123ac82612362565b8082529160209060019081811690811561242b57506001146123cf575b50505050565b9293945060106000527f1b6847dc741a1b0cd08d278845f9d819d87b734759afb55fe2de5cb82a9ae672926000935b8585106124185750505060209250010190388080806123c9565b80548585018401529382019381016123fe565b92505050602093945060ff929192191683830152151560051b010190388080806123c9565b6012546000929161246082612362565b8082529160209060019081811690811561242b57506001146124825750505050565b9293945060126000527fbb8a6a4669ba250d26cd7a459eca9d215f8307e33aebe50379bc5a3617ec3444926000935b8585106124cb5750505060209250010190388080806123c9565b80548585018401529382019381016124b1565b61034081019081106001600160401b0382111761036357604052565b90601f801991011681019081106001600160401b0382111761036357604052565b91908201809211610a2457565b91908203918211610a2457565b6001600160401b03811161036357601f01601f191660200190565b3d1561257b573d9061256182612535565b9161256f60405193846124fa565b82523d6000602084013e565b606090565b1561258757565b60405162461bcd60e51b8152602060048201526016602482015275185c989a5d195c881c185e5b595b9d0819985a5b195960521b6044820152606490fd5b156125cc57565b60405162461bcd60e51b815260206004820152601c60248201527f66656520726563697069656e74207061796d656e74206661696c6564000000006044820152606490fd5b1561261857565b60405162461bcd60e51b815260206004820152600d60248201526c1c99599d5b990819985a5b1959609a1b6044820152606490fd5b81810292918115918404141715610a2457565b908160209103126103da575180151581036103da5790565b1561267f57565b60405162461bcd60e51b815260206004820152600d60248201526c1c185e5bdd5d0819985a5b1959609a1b6044820152606490fd5b908060209392818452848401376000828201840152601f01601f1916010190565b6000546001600160a01b031633036126e957565b60405163118cdaa760e01b8152336004820152602490fd5b600080516020612799833981519152600281541461271f5760029055565b604051633ee5aeb560e01b8152600490fd5b600080546001600160a01b039283166001600160a01b03198216811783559216907f8be0079c531659141344cd1fd0a4f28419497f9722a3daafe3b4186f6b6457e09080a356fed7dee2702d63ad89917b6a4da9981c90c4d24f8c2bdfd64c604ecae57d8d06519b779b17422d0df92223018b32b4d1fa46e071723d6817e2486d003becc55f00a264697066735822122067305c0d19e8f7a651a597b1c49ed6671072cf30dedb1e4df892c2e75f6ed4df64736f6c63430008180033","linkReferences":{}},"methodIdentifiers":{"approve(string)":"b67b7163","cancel()":"ea8a1af0","deliver(string,bytes32)":"fe961ae2","escrowInfo()":"f3d25904","fund()":"b60d4288","getAllInfo()":"b18e15bd","getState()":"1865c57d","initialize(address,address,address,address,uint256,address,uint256,uint64,uint256,uint256,uint256,uint256)":"4785fade","initiateDispute()":"4acc296f","isReleasable()":"ad9bdebb","owner()":"8da5cb5b","participants()":"6c4470fb","payDisputeFee()":"394ff3eb","refundAfterDeadline()":"879b8a91","renounceOwnership()":"715018a6","resolveDisputeByDefault()":"ac759f16","resolveToBuyer()":"102df91d","resolveToVendor()":"ed60e20b","setRewardRatePer1e18(uint256)":"1f7cb13b","setRewardToken(address)":"8aee8127","transferOwnership(address)":"f2fde38b","withdraw()":"3ccfd60b"},"id":38}