{"abi":[{"type":"constructor","inputs":[{"name":"_implementation","type":"address","internalType":"address"}],"stateMutability":"nonpayable"},{"type":"function","name":"createEscrow","inputs":[{"name":"jobId","type":"bytes32","internalType":"bytes32"},{"name":"buyer","type":"address","internalType":"address"},{"name":"seller","type":"address","internalType":"address"},{"name":"arbiter","type":"address","internalType":"address"},{"name":"feeRecipient","type":"address","internalType":"address"},{"name":"feeBps","type":"uint256","internalType":"uint256"},{"name":"paymentToken","type":"address","internalType":"address"},{"name":"amountWei","type":"uint256","internalType":"uint256"},{"name":"deadline","type":"uint64","internalType":"uint64"},{"name":"buyerFeeBps","type":"uint256","internalType":"uint256"},{"name":"vendorFeeBps","type":"uint256","internalType":"uint256"},{"name":"disputeFeeBps","type":"uint256","internalType":"uint256"},{"name":"rewardRateBps","type":"uint256","internalType":"uint256"}],"outputs":[{"name":"escrow","type":"address","internalType":"address"}],"stateMutability":"nonpayable"},{"type":"function","name":"createEscrowDeterministic","inputs":[{"name":"jobId","type":"bytes32","internalType":"bytes32"},{"name":"buyer","type":"address","internalType":"address"},{"name":"seller","type":"address","internalType":"address"},{"name":"arbiter","type":"address","internalType":"address"},{"name":"feeRecipient","type":"address","internalType":"address"},{"name":"feeBps","type":"uint256","internalType":"uint256"},{"name":"paymentToken","type":"address","internalType":"address"},{"name":"amountWei","type":"uint256","internalType":"uint256"},{"name":"deadline","type":"uint64","internalType":"uint64"},{"name":"buyerFeeBps","type":"uint256","internalType":"uint256"},{"name":"vendorFeeBps","type":"uint256","internalType":"uint256"},{"name":"disputeFeeBps","type":"uint256","internalType":"uint256"},{"name":"rewardRateBps","type":"uint256","internalType":"uint256"},{"name":"salt","type":"bytes32","internalType":"bytes32"}],"outputs":[{"name":"escrow","type":"address","internalType":"address"}],"stateMutability":"nonpayable"},{"type":"function","name":"implementation","inputs":[],"outputs":[{"name":"","type":"address","internalType":"address"}],"stateMutability":"view"},{"type":"function","name":"isEscrowCreated","inputs":[{"name":"","type":"address","internalType":"address"}],"outputs":[{"name":"","type":"bool","internalType":"bool"}],"stateMutability":"view"},{"type":"function","name":"owner","inputs":[],"outputs":[{"name":"","type":"address","internalType":"address"}],"stateMutability":"view"},{"type":"function","name":"predictEscrow","inputs":[{"name":"salt","type":"bytes32","internalType":"bytes32"}],"outputs":[{"name":"predicted","type":"address","internalType":"address"}],"stateMutability":"view"},{"type":"function","name":"rewardDistributor","inputs":[],"outputs":[{"name":"","type":"address","internalType":"address"}],"stateMutability":"view"},{"type":"function","name":"setRewardDistributor","inputs":[{"name":"_rewardDistributor","type":"address","internalType":"address"}],"outputs":[],"stateMutability":"nonpayable"},{"type":"function","name":"transferOwnership","inputs":[{"name":"newOwner","type":"address","internalType":"address"}],"outputs":[],"stateMutability":"nonpayable"},{"type":"event","name":"EscrowCreated","inputs":[{"name":"jobId","type":"bytes32","indexed":true,"internalType":"bytes32"},{"name":"escrow","type":"address","indexed":true,"internalType":"address"},{"name":"buyer","type":"address","indexed":true,"internalType":"address"},{"name":"seller","type":"address","indexed":false,"internalType":"address"},{"name":"arbiter","type":"address","indexed":false,"internalType":"address"},{"name":"feeRecipient","type":"address","indexed":false,"internalType":"address"},{"name":"feeBps","type":"uint256","indexed":false,"internalType":"uint256"},{"name":"paymentToken","type":"address","indexed":false,"internalType":"address"},{"name":"amountWei","type":"uint256","indexed":false,"internalType":"uint256"},{"name":"deterministic","type":"bool","indexed":false,"internalType":"bool"},{"name":"deadline","type":"uint64","indexed":false,"internalType":"uint64"},{"name":"buyerFeeBps","type":"uint256","indexed":false,"internalType":"uint256"},{"name":"vendorFeeBps","type":"uint256","indexed":false,"internalType":"uint256"},{"name":"disputeFeeBps","type":"uint256","indexed":false,"internalType":"uint256"},{"name":"rewardRateBps","type":"uint256","indexed":false,"internalType":"uint256"}],"anonymous":false},{"type":"event","name":"OwnershipTransferred","inputs":[{"name":"previousOwner","type":"address","indexed":true,"internalType":"address"},{"name":"newOwner","type":"address","indexed":true,"internalType":"address"}],"anonymous":false},{"type":"event","name":"RewardDistributorSet","inputs":[{"name":"rewardDistributor","type":"address","indexed":true,"internalType":"address"}],"anonymous":false},{"type":"error","name":"FailedDeployment","inputs":[]},{"type":"error","name":"InsufficientBalance","inputs":[{"name":"balance","type":"uint256","internalType":"uint256"},{"name":"needed","type":"uint256","internalType":"uint256"}]},{"type":"error","name":"NotOwner","inputs":[]}],"bytecode":{"object":"0x60a0346100dc57601f6109b038819003918201601f19168301916001600160401b038311848410176100e1578084926020946040528339810103126100dc57516001600160a01b0381168082036100dc571561009757608052600080546001600160a01b031916331790556040516108b890816100f8823960805181818161020f0152818161028401528181610493015261053f0152f35b60405162461bcd60e51b815260206004820152601360248201527f7a65726f20696d706c656d656e746174696f6e000000000000000000000000006044820152606490fd5b600080fd5b634e487b7160e01b600052604160045260246000fdfe608080604052600436101561001357600080fd5b600090813560e01c9081630e3e9293146106fb5750806320a7e363146104f9578063290d3ada1461045e578063346a7aa71461023e5780635c60da1b146101f95780638da5cb5b146101d2578063a1809b9514610163578063acc2166a1461013a5763f2fde38b1461008457600080fd5b346101375760203660031901126101375761009d61073b565b8154906001600160a01b03808316913383900361012557169182156100f1576001600160a01b031916821783557f8be0079c531659141344cd1fd0a4f28419497f9722a3daafe3b4186f6b6457e08380a380f35b60405162461bcd60e51b815260206004820152600c60248201526b7a65726f206164647265737360a01b6044820152606490fd5b6040516330cd747160e01b8152600490fd5b80fd5b50346101375780600319360112610137576001546040516001600160a01b039091168152602090f35b50346101375760203660031901126101375761017d61073b565b81546001600160a01b039190821633036101255716806bffffffffffffffffffffffff60a01b60015416176001557f075c02c513a415bd4ff5976f8aa6fc5767d2183daca9ec00ab71ce78e8bf81588280a280f35b5034610137578060031936011261013757546040516001600160a01b039091168152602090f35b50346101375780600319360112610137576040517f00000000000000000000000000000000000000000000000000000000000000006001600160a01b03168152602090f35b5034610137576101a036600319011261013757610259610756565b61026161076c565b610269610782565b91610272610798565b61027a6107ae565b6102826107c4565b7f0000000000000000000000000000000000000000000000000000000000000000608881901c62ffffff16763d602d80600a3d3981f3363d3d373d3d3d363d7300000017885260781b6e5af43d82803e903d91602b57fd5bf317602052916001600160a01b036037600989f01695861561044c576001546001600160a01b031688883b1561013757858761034b8a94888888604051988997889763295f614160e11b895261018435958961016435966101443596610124359660e43595600460a4359501610806565b0381838c5af1801561044157610429575b5086885260026020908152604098899020805460ff1916600117905588516001600160a01b039788168152918716828201529186169781019790975260a4356060880152908416608087015260e43560a0870152600060c087015267ffffffffffffffff90911660e086015261012435610100860152610144356101208601526101643561014086015261018435610160860152939116908290600435907f3526cfc798ab7e9e6471c8b7b0e0c90ecf1f141436bd7def1ea46ffb2d9213fa9061018090a4604051908152f35b61043389916107dc565b61043d573861035c565b8780fd5b6040513d8b823e3d90fd5b60405163b06ebf3d60e01b8152600490fd5b50346101375760203660031901126101375760206040513060388201526f5af43d82803e903d91602b57fd5bf3ff60248201527f00000000000000000000000000000000000000000000000000000000000000006014820152733d602d80600a3d3981f3363d3d373d3d3d363d73815260043560588201526037600c82012060788201526055604360018060a01b0392012016604051908152f35b5034610137576101c036600319011261013757610514610756565b61051c61076c565b610524610782565b9161052d610798565b6105356107ae565b61053d6107c4565b7f0000000000000000000000000000000000000000000000000000000000000000608881901c62ffffff16763d602d80600a3d3981f3363d3d373d3d3d363d7300000017885260781b6e5af43d82803e903d91602b57fd5bf317602052916001600160a01b036101a435603760098af51695861561044c576001546001600160a01b031688883b1561013757858761060a8a94888888604051988997889763295f614160e11b895261018435958961016435966101443596610124359660e43595600460a4359501610806565b0381838c5af180156104415791604060209a8a9897959367ffffffffffffffff97956106ec575b5088815260028c5220805460ff19166001908117909155604080516001600160a01b039a8b168152928a16838d01529289169282019290925260a4356060820152918716608083015260e43560a083015260c0820152911660e082015261012435610100820152610144356101208201526101643561014082015261018435610160820152921691600435907f3526cfc798ab7e9e6471c8b7b0e0c90ecf1f141436bd7def1ea46ffb2d9213fa9061018090a4604051908152f35b6106f5906107dc565b38610631565b9050346107375760203660031901126107375760209160ff906040906001600160a01b0361072761073b565b1681526002855220541615158152f35b5080fd5b600435906001600160a01b038216820361075157565b600080fd5b602435906001600160a01b038216820361075157565b604435906001600160a01b038216820361075157565b606435906001600160a01b038216820361075157565b608435906001600160a01b038216820361075157565b60c435906001600160a01b038216820361075157565b610104359067ffffffffffffffff8216820361075157565b67ffffffffffffffff81116107f057604052565b634e487b7160e01b600052604160045260246000fd5b9b989591929a9794909d9c9996939d6101a08d019e8d600160a01b60019003809e8180988180971685521660208401521690604001521660608d015260808c01521660a08a015260c089015267ffffffffffffffff1660e08801526101008701526101208601526101408501526101608401521690610180015256fea2646970667358221220961ccccf53074b3fc921b4898e5f7b91df50839e08e386767ab7a042ac8397f364736f6c63430008180033","linkReferences":{}},"methodIdentifiers":{"createEscrow(bytes32,address,address,address,address,uint256,address,uint256,uint64,uint256,uint256,uint256,uint256)":"346a7aa7","createEscrowDeterministic(bytes32,address,address,address,address,uint256,address,uint256,uint64,uint256,uint256,uint256,uint256,bytes32)":"20a7e363","implementation()":"5c60da1b","isEscrowCreated(address)":"0e3e9293","owner()":"8da5cb5b","predictEscrow(bytes32)":"290d3ada","rewardDistributor()":"acc2166a","setRewardDistributor(address)":"a1809b95","transferOwnership(address)":"f2fde38b"},"id":40}